{
  "_format": "hh-sol-artifact-1",
  "contractName": "Voting",
  "sourceName": "contracts/Voting.sol",
  "abi": [
    {
      "inputs": [],
      "stateMutability": "nonpayable",
      "type": "constructor"
    },
    {
      "inputs": [
        {
          "internalType": "address",
          "name": "owner",
          "type": "address"
        }
      ],
      "name": "OwnableInvalidOwner",
      "type": "error"
    },
    {
      "inputs": [
        {
          "internalType": "address",
          "name": "account",
          "type": "address"
        }
      ],
      "name": "OwnableUnauthorizedAccount",
      "type": "error"
    },
    {
      "anonymous": false,
      "inputs": [
        {
          "indexed": true,
          "internalType": "address",
          "name": "previousOwner",
          "type": "address"
        },
        {
          "indexed": true,
          "internalType": "address",
          "name": "newOwner",
          "type": "address"
        }
      ],
      "name": "OwnershipTransferred",
      "type": "event"
    },
    {
      "anonymous": false,
      "inputs": [
        {
          "indexed": false,
          "internalType": "uint256",
          "name": "proposalId",
          "type": "uint256"
        }
      ],
      "name": "ProposalRegistered",
      "type": "event"
    },
    {
      "anonymous": false,
      "inputs": [
        {
          "indexed": false,
          "internalType": "address",
          "name": "voter",
          "type": "address"
        },
        {
          "indexed": false,
          "internalType": "uint256",
          "name": "proposalId",
          "type": "uint256"
        }
      ],
      "name": "Voted",
      "type": "event"
    },
    {
      "anonymous": false,
      "inputs": [
        {
          "indexed": false,
          "internalType": "address",
          "name": "voterAddress",
          "type": "address"
        }
      ],
      "name": "VoterRegistered",
      "type": "event"
    },
    {
      "anonymous": false,
      "inputs": [
        {
          "indexed": false,
          "internalType": "enum Voting.WorkflowStatus",
          "name": "previousStatus",
          "type": "uint8"
        },
        {
          "indexed": false,
          "internalType": "enum Voting.WorkflowStatus",
          "name": "newStatus",
          "type": "uint8"
        }
      ],
      "name": "WorkflowStatusChange",
      "type": "event"
    },
    {
      "inputs": [],
      "name": "endProposalsRegistration",
      "outputs": [],
      "stateMutability": "nonpayable",
      "type": "function"
    },
    {
      "inputs": [],
      "name": "endVotingSession",
      "outputs": [],
      "stateMutability": "nonpayable",
      "type": "function"
    },
    {
      "inputs": [],
      "name": "owner",
      "outputs": [
        {
          "internalType": "address",
          "name": "",
          "type": "address"
        }
      ],
      "stateMutability": "view",
      "type": "function"
    },
    {
      "inputs": [
        {
          "internalType": "uint256",
          "name": "",
          "type": "uint256"
        }
      ],
      "name": "proposals",
      "outputs": [
        {
          "internalType": "string",
          "name": "description",
          "type": "string"
        },
        {
          "internalType": "uint256",
          "name": "voteCount",
          "type": "uint256"
        }
      ],
      "stateMutability": "view",
      "type": "function"
    },
    {
      "inputs": [
        {
          "internalType": "address",
          "name": "_voter",
          "type": "address"
        }
      ],
      "name": "registerVoter",
      "outputs": [],
      "stateMutability": "nonpayable",
      "type": "function"
    },
    {
      "inputs": [],
      "name": "renounceOwnership",
      "outputs": [],
      "stateMutability": "nonpayable",
      "type": "function"
    },
    {
      "inputs": [],
      "name": "startProposalsRegistration",
      "outputs": [],
      "stateMutability": "nonpayable",
      "type": "function"
    },
    {
      "inputs": [],
      "name": "startVotingSession",
      "outputs": [],
      "stateMutability": "nonpayable",
      "type": "function"
    },
    {
      "inputs": [],
      "name": "status",
      "outputs": [
        {
          "internalType": "enum Voting.WorkflowStatus",
          "name": "",
          "type": "uint8"
        }
      ],
      "stateMutability": "view",
      "type": "function"
    },
    {
      "inputs": [
        {
          "internalType": "string",
          "name": "_desc",
          "type": "string"
        }
      ],
      "name": "submitProposal",
      "outputs": [],
      "stateMutability": "nonpayable",
      "type": "function"
    },
    {
      "inputs": [],
      "name": "tallyVotes",
      "outputs": [],
      "stateMutability": "nonpayable",
      "type": "function"
    },
    {
      "inputs": [
        {
          "internalType": "address",
          "name": "newOwner",
          "type": "address"
        }
      ],
      "name": "transferOwnership",
      "outputs": [],
      "stateMutability": "nonpayable",
      "type": "function"
    },
    {
      "inputs": [
        {
          "internalType": "uint256",
          "name": "_proposalId",
          "type": "uint256"
        }
      ],
      "name": "vote",
      "outputs": [],
      "stateMutability": "nonpayable",
      "type": "function"
    },
    {
      "inputs": [
        {
          "internalType": "address",
          "name": "",
          "type": "address"
        }
      ],
      "name": "voters",
      "outputs": [
        {
          "internalType": "bool",
          "name": "isRegistered",
          "type": "bool"
        },
        {
          "internalType": "bool",
          "name": "hasVoted",
          "type": "bool"
        },
        {
          "internalType": "uint256",
          "name": "votedProposalId",
          "type": "uint256"
        }
      ],
      "stateMutability": "view",
      "type": "function"
    },
    {
      "inputs": [],
      "name": "winningProposalId",
      "outputs": [
        {
          "internalType": "uint256",
          "name": "",
          "type": "uint256"
        }
      ],
      "stateMutability": "view",
      "type": "function"
    }
  ],
  "bytecode": "0x60806040523480156200001157600080fd5b5033600073ffffffffffffffffffffffffffffffffffffffff168173ffffffffffffffffffffffffffffffffffffffff1603620000885760006040517f1e4fbdf70000000000000000000000000000000000000000000000000000000081526004016200007f9190620001d6565b60405180910390fd5b6200009981620000cd60201b60201c565b5060008060146101000a81548160ff02191690836005811115620000c257620000c1620001f3565b5b021790555062000222565b60008060009054906101000a900473ffffffffffffffffffffffffffffffffffffffff169050816000806101000a81548173ffffffffffffffffffffffffffffffffffffffff021916908373ffffffffffffffffffffffffffffffffffffffff1602179055508173ffffffffffffffffffffffffffffffffffffffff168173ffffffffffffffffffffffffffffffffffffffff167f8be0079c531659141344cd1fd0a4f28419497f9722a3daafe3b4186f6b6457e060405160405180910390a35050565b600073ffffffffffffffffffffffffffffffffffffffff82169050919050565b6000620001be8262000191565b9050919050565b620001d081620001b1565b82525050565b6000602082019050620001ed6000830184620001c5565b92915050565b7f4e487b7100000000000000000000000000000000000000000000000000000000600052602160045260246000fd5b611f4380620002326000396000f3fe608060405234801561001057600080fd5b50600436106100f55760003560e01c8063715018a611610097578063c64963c511610066578063c64963c514610215578063e09b8c7914610233578063ee74c6781461023d578063f2fde38b14610247576100f5565b8063715018a6146101b15780638da5cb5b146101bb578063a3ec138d146101d9578063a7bfab161461020b576100f5565b8063373d6d5e116100d3578063373d6d5e14610165578063378a21781461018157806338db6dd31461018b5780636c297445146101a7576100f5565b80630121b93f146100fa578063013cf08b14610116578063200d2ed214610147575b600080fd5b610114600480360381019061010f9190611179565b610263565b005b610130600480360381019061012b9190611179565b610510565b60405161013e929190611245565b60405180910390f35b61014f6105cc565b60405161015c91906112ec565b60405180910390f35b61017f600480360381019061017a919061143c565b6105df565b005b610189610792565b005b6101a560048036038101906101a091906114e3565b610909565b005b6101af610aff565b005b6101b9610bf3565b005b6101c3610c07565b6040516101d0919061151f565b60405180910390f35b6101f360048036038101906101ee91906114e3565b610c30565b60405161020293929190611555565b60405180910390f35b610213610c74565b005b61021d610d68565b60405161022a919061158c565b60405180910390f35b61023b610d6e565b005b610245610e62565b005b610261600480360381019061025c91906114e3565b610f56565b005b6003600581111561027757610276611275565b5b600060149054906101000a900460ff16600581111561029957610298611275565b5b146102d9576040517f08c379a00000000000000000000000000000000000000000000000000000000081526004016102d0906115f3565b60405180910390fd5b600160003373ffffffffffffffffffffffffffffffffffffffff1673ffffffffffffffffffffffffffffffffffffffff16815260200190815260200160002060000160009054906101000a900460ff16610368576040517f08c379a000000000000000000000000000000000000000000000000000000000815260040161035f9061165f565b60405180910390fd5b600160003373ffffffffffffffffffffffffffffffffffffffff1673ffffffffffffffffffffffffffffffffffffffff16815260200190815260200160002060000160019054906101000a900460ff16156103f8576040517f08c379a00000000000000000000000000000000000000000000000000000000081526004016103ef906116cb565b60405180910390fd5b60018060003373ffffffffffffffffffffffffffffffffffffffff1673ffffffffffffffffffffffffffffffffffffffff16815260200190815260200160002060000160016101000a81548160ff02191690831515021790555080600160003373ffffffffffffffffffffffffffffffffffffffff1673ffffffffffffffffffffffffffffffffffffffff16815260200190815260200160002060010181905550600281815481106104ad576104ac6116eb565b5b906000526020600020906002020160010160008154809291906104cf90611749565b91905055507f4d99b957a2bc29a30ebd96a7be8e68fe50a3c701db28a91436490b7d53870ca43382604051610505929190611791565b60405180910390a150565b6002818154811061052057600080fd5b9060005260206000209060020201600091509050806000018054610543906117e9565b80601f016020809104026020016040519081016040528092919081815260200182805461056f906117e9565b80156105bc5780601f10610591576101008083540402835291602001916105bc565b820191906000526020600020905b81548152906001019060200180831161059f57829003601f168201915b5050505050908060010154905082565b600060149054906101000a900460ff1681565b600160058111156105f3576105f2611275565b5b600060149054906101000a900460ff16600581111561061557610614611275565b5b14610655576040517f08c379a000000000000000000000000000000000000000000000000000000000815260040161064c90611866565b60405180910390fd5b600160003373ffffffffffffffffffffffffffffffffffffffff1673ffffffffffffffffffffffffffffffffffffffff16815260200190815260200160002060000160009054906101000a900460ff166106e4576040517f08c379a00000000000000000000000000000000000000000000000000000000081526004016106db906118d2565b60405180910390fd5b6002604051806040016040528083815260200160008152509080600181540180825580915050600190039060005260206000209060020201600090919091909150600082015181600001908161073a9190611a9e565b506020820151816001015550507f92e393e9b54e2f801d3ea4beb0c5e71a21cc34a5d34b77d0fb8a3aa1650dc18f600160028054905061077a9190611b70565b604051610787919061158c565b60405180910390a150565b61079a610fdc565b600460058111156107ae576107ad611275565b5b600060149054906101000a900460ff1660058111156107d0576107cf611275565b5b14610810576040517f08c379a000000000000000000000000000000000000000000000000000000000815260040161080790611bf0565b60405180910390fd5b6000805b600280549050811015610891578160028281548110610836576108356116eb565b5b906000526020600020906002020160010154111561087e5760028181548110610862576108616116eb565b5b9060005260206000209060020201600101549150806003819055505b808061088990611749565b915050610814565b507f0a97a4ee45751e2abf3e4fc8946939630b11b371ea8ae39ccdc3056e98f5cc3f600060149054906101000a900460ff1660056040516108d3929190611c10565b60405180910390a16005600060146101000a81548160ff0219169083600581111561090157610900611275565b5b021790555050565b610911610fdc565b6000600581111561092557610924611275565b5b600060149054906101000a900460ff16600581111561094757610946611275565b5b14610987576040517f08c379a000000000000000000000000000000000000000000000000000000000815260040161097e90611c85565b60405180910390fd5b600160008273ffffffffffffffffffffffffffffffffffffffff1673ffffffffffffffffffffffffffffffffffffffff16815260200190815260200160002060000160009054906101000a900460ff1615610a17576040517f08c379a0000000000000000000000000000000000000000000000000000000008152600401610a0e90611cf1565b60405180910390fd5b60405180606001604052806001151581526020016000151581526020016000815250600160008373ffffffffffffffffffffffffffffffffffffffff1673ffffffffffffffffffffffffffffffffffffffff16815260200190815260200160002060008201518160000160006101000a81548160ff02191690831515021790555060208201518160000160016101000a81548160ff021916908315150217905550604082015181600101559050507fb6be2187d059cc2a55fe29e0e503b566e1e0f8c8780096e185429350acffd3dd81604051610af4919061151f565b60405180910390a150565b610b07610fdc565b60016005811115610b1b57610b1a611275565b5b600060149054906101000a900460ff166005811115610b3d57610b3c611275565b5b14610b7d576040517f08c379a0000000000000000000000000000000000000000000000000000000008152600401610b7490611d83565b60405180910390fd5b7f0a97a4ee45751e2abf3e4fc8946939630b11b371ea8ae39ccdc3056e98f5cc3f600060149054906101000a900460ff166002604051610bbe929190611c10565b60405180910390a16002600060146101000a81548160ff02191690836005811115610bec57610beb611275565b5b0217905550565b610bfb610fdc565b610c056000611063565b565b60008060009054906101000a900473ffffffffffffffffffffffffffffffffffffffff16905090565b60016020528060005260406000206000915090508060000160009054906101000a900460ff16908060000160019054906101000a900460ff16908060010154905083565b610c7c610fdc565b60036005811115610c9057610c8f611275565b5b600060149054906101000a900460ff166005811115610cb257610cb1611275565b5b14610cf2576040517f08c379a0000000000000000000000000000000000000000000000000000000008152600401610ce990611def565b60405180910390fd5b7f0a97a4ee45751e2abf3e4fc8946939630b11b371ea8ae39ccdc3056e98f5cc3f600060149054906101000a900460ff166004604051610d33929190611c10565b60405180910390a16004600060146101000a81548160ff02191690836005811115610d6157610d60611275565b5b0217905550565b60035481565b610d76610fdc565b60006005811115610d8a57610d89611275565b5b600060149054906101000a900460ff166005811115610dac57610dab611275565b5b14610dec576040517f08c379a0000000000000000000000000000000000000000000000000000000008152600401610de390611e81565b60405180910390fd5b7f0a97a4ee45751e2abf3e4fc8946939630b11b371ea8ae39ccdc3056e98f5cc3f600060149054906101000a900460ff166001604051610e2d929190611c10565b60405180910390a16001600060146101000a81548160ff02191690836005811115610e5b57610e5a611275565b5b0217905550565b610e6a610fdc565b60026005811115610e7e57610e7d611275565b5b600060149054906101000a900460ff166005811115610ea057610e9f611275565b5b14610ee0576040517f08c379a0000000000000000000000000000000000000000000000000000000008152600401610ed790611eed565b60405180910390fd5b7f0a97a4ee45751e2abf3e4fc8946939630b11b371ea8ae39ccdc3056e98f5cc3f600060149054906101000a900460ff166003604051610f21929190611c10565b60405180910390a16003600060146101000a81548160ff02191690836005811115610f4f57610f4e611275565b5b0217905550565b610f5e610fdc565b600073ffffffffffffffffffffffffffffffffffffffff168173ffffffffffffffffffffffffffffffffffffffff1603610fd05760006040517f1e4fbdf7000000000000000000000000000000000000000000000000000000008152600401610fc7919061151f565b60405180910390fd5b610fd981611063565b50565b610fe4611127565b73ffffffffffffffffffffffffffffffffffffffff16611002610c07565b73ffffffffffffffffffffffffffffffffffffffff161461106157611025611127565b6040517f118cdaa7000000000000000000000000000000000000000000000000000000008152600401611058919061151f565b60405180910390fd5b565b60008060009054906101000a900473ffffffffffffffffffffffffffffffffffffffff169050816000806101000a81548173ffffffffffffffffffffffffffffffffffffffff021916908373ffffffffffffffffffffffffffffffffffffffff1602179055508173ffffffffffffffffffffffffffffffffffffffff168173ffffffffffffffffffffffffffffffffffffffff167f8be0079c531659141344cd1fd0a4f28419497f9722a3daafe3b4186f6b6457e060405160405180910390a35050565b600033905090565b6000604051905090565b600080fd5b600080fd5b6000819050919050565b61115681611143565b811461116157600080fd5b50565b6000813590506111738161114d565b92915050565b60006020828403121561118f5761118e611139565b5b600061119d84828501611164565b91505092915050565b600081519050919050565b600082825260208201905092915050565b60005b838110156111e05780820151818401526020810190506111c5565b60008484015250505050565b6000601f19601f8301169050919050565b6000611208826111a6565b61121281856111b1565b93506112228185602086016111c2565b61122b816111ec565b840191505092915050565b61123f81611143565b82525050565b6000604082019050818103600083015261125f81856111fd565b905061126e6020830184611236565b9392505050565b7f4e487b7100000000000000000000000000000000000000000000000000000000600052602160045260246000fd5b600681106112b5576112b4611275565b5b50565b60008190506112c6826112a4565b919050565b60006112d6826112b8565b9050919050565b6112e6816112cb565b82525050565b600060208201905061130160008301846112dd565b92915050565b600080fd5b600080fd5b7f4e487b7100000000000000000000000000000000000000000000000000000000600052604160045260246000fd5b611349826111ec565b810181811067ffffffffffffffff8211171561136857611367611311565b5b80604052505050565b600061137b61112f565b90506113878282611340565b919050565b600067ffffffffffffffff8211156113a7576113a6611311565b5b6113b0826111ec565b9050602081019050919050565b82818337600083830152505050565b60006113df6113da8461138c565b611371565b9050828152602081018484840111156113fb576113fa61130c565b5b6114068482856113bd565b509392505050565b600082601f83011261142357611422611307565b5b81356114338482602086016113cc565b91505092915050565b60006020828403121561145257611451611139565b5b600082013567ffffffffffffffff8111156114705761146f61113e565b5b61147c8482850161140e565b91505092915050565b600073ffffffffffffffffffffffffffffffffffffffff82169050919050565b60006114b082611485565b9050919050565b6114c0816114a5565b81146114cb57600080fd5b50565b6000813590506114dd816114b7565b92915050565b6000602082840312156114f9576114f8611139565b5b6000611507848285016114ce565b91505092915050565b611519816114a5565b82525050565b60006020820190506115346000830184611510565b92915050565b60008115159050919050565b61154f8161153a565b82525050565b600060608201905061156a6000830186611546565b6115776020830185611546565b6115846040830184611236565b949350505050565b60006020820190506115a16000830184611236565b92915050565b7f4e6f7420696e20766f74696e6720706861736500000000000000000000000000600082015250565b60006115dd6013836111b1565b91506115e8826115a7565b602082019050919050565b6000602082019050818103600083015261160c816115d0565b9050919050565b7f4e6f742072656769737465726564000000000000000000000000000000000000600082015250565b6000611649600e836111b1565b915061165482611613565b602082019050919050565b600060208201905081810360008301526116788161163c565b9050919050565b7f416c726561647920766f74656400000000000000000000000000000000000000600082015250565b60006116b5600d836111b1565b91506116c08261167f565b602082019050919050565b600060208201905081810360008301526116e4816116a8565b9050919050565b7f4e487b7100000000000000000000000000000000000000000000000000000000600052603260045260246000fd5b7f4e487b7100000000000000000000000000000000000000000000000000000000600052601160045260246000fd5b600061175482611143565b91507fffffffffffffffffffffffffffffffffffffffffffffffffffffffffffffffff82036117865761178561171a565b5b600182019050919050565b60006040820190506117a66000830185611510565b6117b36020830184611236565b9392505050565b7f4e487b7100000000000000000000000000000000000000000000000000000000600052602260045260246000fd5b6000600282049050600182168061180157607f821691505b602082108103611814576118136117ba565b5b50919050565b7f4e6f7420696e2070726f706f73616c2070686173650000000000000000000000600082015250565b60006118506015836111b1565b915061185b8261181a565b602082019050919050565b6000602082019050818103600083015261187f81611843565b9050919050565b7f4e6f742061207265676973746572656420766f74657200000000000000000000600082015250565b60006118bc6016836111b1565b91506118c782611886565b602082019050919050565b600060208201905081810360008301526118eb816118af565b9050919050565b60008190508160005260206000209050919050565b60006020601f8301049050919050565b600082821b905092915050565b6000600883026119547fffffffffffffffffffffffffffffffffffffffffffffffffffffffffffffffff82611917565b61195e8683611917565b95508019841693508086168417925050509392505050565b6000819050919050565b600061199b61199661199184611143565b611976565b611143565b9050919050565b6000819050919050565b6119b583611980565b6119c96119c1826119a2565b848454611924565b825550505050565b600090565b6119de6119d1565b6119e98184846119ac565b505050565b5b81811015611a0d57611a026000826119d6565b6001810190506119ef565b5050565b601f821115611a5257611a23816118f2565b611a2c84611907565b81016020851015611a3b578190505b611a4f611a4785611907565b8301826119ee565b50505b505050565b600082821c905092915050565b6000611a7560001984600802611a57565b1980831691505092915050565b6000611a8e8383611a64565b9150826002028217905092915050565b611aa7826111a6565b67ffffffffffffffff811115611ac057611abf611311565b5b611aca82546117e9565b611ad5828285611a11565b600060209050601f831160018114611b085760008415611af6578287015190505b611b008582611a82565b865550611b68565b601f198416611b16866118f2565b60005b82811015611b3e57848901518255600182019150602085019450602081019050611b19565b86831015611b5b5784890151611b57601f891682611a64565b8355505b6001600288020188555050505b505050505050565b6000611b7b82611143565b9150611b8683611143565b9250828203905081811115611b9e57611b9d61171a565b5b92915050565b7f43616e6e6f742074616c6c7920766f746573206e6f7700000000000000000000600082015250565b6000611bda6016836111b1565b9150611be582611ba4565b602082019050919050565b60006020820190508181036000830152611c0981611bcd565b9050919050565b6000604082019050611c2560008301856112dd565b611c3260208301846112dd565b9392505050565b7f526567697374726174696f6e20636c6f73656400000000000000000000000000600082015250565b6000611c6f6013836111b1565b9150611c7a82611c39565b602082019050919050565b60006020820190508181036000830152611c9e81611c62565b9050919050565b7f416c726561647920726567697374657265640000000000000000000000000000600082015250565b6000611cdb6012836111b1565b9150611ce682611ca5565b602082019050919050565b60006020820190508181036000830152611d0a81611cce565b9050919050565b7f43616e6e6f7420656e642070726f706f73616c7320726567697374726174696f60008201527f6e206e6f77000000000000000000000000000000000000000000000000000000602082015250565b6000611d6d6025836111b1565b9150611d7882611d11565b604082019050919050565b60006020820190508181036000830152611d9c81611d60565b9050919050565b7f43616e6e6f7420656e6420766f74696e672073657373696f6e206e6f77000000600082015250565b6000611dd9601d836111b1565b9150611de482611da3565b602082019050919050565b60006020820190508181036000830152611e0881611dcc565b9050919050565b7f43616e6e6f742073746172742070726f706f73616c732072656769737472617460008201527f696f6e206e6f7700000000000000000000000000000000000000000000000000602082015250565b6000611e6b6027836111b1565b9150611e7682611e0f565b604082019050919050565b60006020820190508181036000830152611e9a81611e5e565b9050919050565b7f43616e6e6f7420737461727420766f74696e672073657373696f6e206e6f7700600082015250565b6000611ed7601f836111b1565b9150611ee282611ea1565b602082019050919050565b60006020820190508181036000830152611f0681611eca565b905091905056fea2646970667358221220ac1dcacff9809195bc30ac186697b2e9a84c61aba807cc6df9e9de9024fd6b0864736f6c63430008140033",
  "linkReferences": {},
  "deployedLinkReferences": {}
}